:04000000A9EF08F06C
:10100000002F6E5072657373203120666F7220520C
:1010100065642C203220666F722059656C6C6F7786
:101020002C203320666F7220677265656E005765ED
:101030006C636F6D6520746F20333236204C6162B3
:1010400031420000080EB86E900EAB6E240EAC6EEE
:10105000CF0EAF6E000EB06E000E076E000E086E63
:101060009FEC08F0000E076E000E086E9AEC08F078
:10107000000E076E000E086EA4EC08F0000E0A6E5B
:1010800012004EEF08F008C0F6FF09C0F7FFF86A3B
:101090000800F55083EC08F0084A092A08C0F6FF5A
:1010A00009C0F7FFF86A0800F5500009D8A45BEF03
:1010B00008F05DEF08F043EF08F01200000E896EB3
:1010C000000E8A6E000E8B6E9268F80E936EBF0E45
:1010D000946E1F0E7E6E1F0E7F6E000E7C6EF18E64
:1010E00012008EEC08F02E0E086E100E096E41EC08
:1010F00008F0010E086E100E096E41EC08F07FEF4B
:1011000008F000EF00F0076E9EA889EF08F08BEF63
:1011100008F084EF08F007C0ADFF12005EEC08F0A5
:1011200095EC08F022EC08F01200620ED36E000E6F
:101130009B6E120007C003F008C004F0120007C045
:1011400005F008C006F0120007C001F008C002F068
:0A11500012000A6A000171EF08F0B6
:020000040020DA
:08000000FFFFFFFFFFFFFFFF00
:020000040030CA
:0E000000FF081F1EFF8985FF0FC00FE00F4095
:00000001FF
